:10000000020036021228E4FFFEEF25E0FF0043B1B4
:1000100008E5B130E203D38001C39205A205E433C1
:1000200042070053B1F70EBE08DF22020BBB53D8C4
:10003000EF322202002E787FE4F6D8FD75814F0260
:10004000076932020C0053B1FD223202095F43B14D
:10005000022232020C0090E680E030E71590E624A0
:100060007402F0000000E490E625F0000000D204E5
:100070008013E490E624F000000090E6257440F040
:10008000000000C20490E6BAE0F54ED322C2A322DB
:100090001201000200000040B5048160000001026E
:1000A00000010A06000200000040010009022000D1
:1000B000010100A0FA0904000002FF00000007058A
:1000C0000202000200070586020002000902200069
:1000D000010100A0FA0904000002FF00000007056A
:1000E00002024000000705860240000004030904E4
:1000F0000E034F0044004D00200020002000160396
:10010000440053004F002D0036003000380032000C
:10011000420045000000753501750A00750B01901D
:10012000E678E05410FFC4540F4450F54B13E43309
:10013000F54F90E6B9E0245E607924EF603724CF74
:10014000700302046824F4700302033D1470030278
:1001500003DF243F60030204CBA204E43390E740B2
:10016000F0E490E68AF090E68B04F090E6A0E0449C
:1001700080F00204CDE490E68AF090E68BF090E601
:10018000A0E020E1F990E68BE0753100F532000047
:100190000090E6047480F00000007406F000000097
:1001A000E4F043800BD280C28090E6A0E04480F06F
:1001B0000204CD90E6BAE0752D00F52EA3E0FEE432
:1001C000EE422D90E6BEE0752F00F530A3E0FEE490
:1001D000EE422F90E6B8E064C060030202A5E5306D
:1001E000452F70030204CDC3E5309440E52F940001
:1001F0005008852F318530328006753100753240C8
:1002000090E6B9E0B4A335E4F533F534C3E53495AD
:1002100032E53395315060E52E2534F582E52D35F4
:1002200033F583E0FF74402534F582E434E7F58349
:10023000EFF00534E5347002053380D0E4F533F592
:1002400034C3E5349532E533953150187440253484
:10025000F582E434E7F58374CDF00534E5347002BB
:10026000053380DDAD327AE779407EE77F40AB072A
:10027000AF2EAE2D120DB1E490E68AF090E68BE53C
:1002800032F0252EF52EE531352DF52DC3E53095CF
:1002900032F530E52F9531F52F90E6A0E020E1030F
:1002A0000201DE80F490E6B8E0644060030204CD11
:1002B000E530452F70030204CDE490E68AF090E625
:1002C0008BF090E6A0E020E1F990E68BE07531003C
:1002D000F53290E6B9E0B4A335E4F533F534C3E57F
:1002E000349532E5339531503874402534F582E445
:1002F00034E7F583E0FFE52E2534F582E52D35332F
:10030000F583EFF00534E5347002053380D0AD326B
:100310007AE779407EE77F40AB07AF2EAE2D120F14
:1003200030E532252EF52EE531352DF52DC3E5309E
:100330009532F530E52F9531F52F0202B075B6FBF9
:1003400075B180754D0643B11053B1FEE54C701385
:1003500012111800E53530E0071210F68F3580F4E1
:10036000754C0A90E6BEE0752F00F530A3E0FEE480
:10037000EE422FE530452F70030204CD753501E4C0
:1003800090E68AF090E68BF090E6A0E020E1F9900C
:10039000E68BE0753100F532AF4AAE49AD48AC4767
:1003A0007B017AE77940F53D120CB8E53530E0077E
:1003B0001210F68F3580F4E4FCFDE54A2532F54A4B
:1003C000E5493531F549ED3548F548EC3547F54710
:1003D000C3E5309532F530E52F9531F52F809475D2
:1003E000B6FB75B180754D0890E6BEE0752F00F53F
:1003F00030A3E0FEE4EE422FE530452F7003020407
:10040000CD90E6A0E020E1F9C3E5309440E52F94DB
:10041000005008852F3185303280067531007532E5
:1004200040AF4AAE49AD48AC477B017AE779408599
:10043000323D120D0EE490E68AF090E68BE532F044
:10044000FFE4FCFDE54A2FF54AE5493531F549ED74
:100450003548F548EC3547F547C3E5309532F5307A
:10046000E52F9531F52F809090E6BAE0752D00F5D7
:100470002EA3E0FEE4EE422D90E6BEE0752F00F5DF
:1004800030A3E0FEE4EE422FE530452F603FE490DC
:10049000E68AF090E68BF090E6A0E020E1F990E6A5
:1004A0008BE0753100F5327B017AE77940121084D8
:1004B000E532252EF52EE531352DF52DC3E53095A8
:1004C00032F530E52F9531F52F80BDD322C3229030
:1004D000E6B9E070030205AB14700302065424FE73
:1004E00070030206E924FB70030205A514700302E1
:1004F000059F1470030205931470030205992405E7
:100500006003020755121200400302076190E6BB28
:10051000E024FE602C14604724FD60161460312432
:10052000067066E50E90E6B3F0E50F90E6B4F002D3
:100530000761E51690E6B3F0E51790E6B4F0020720
:1005400061E51090E6B3F0E51190E6B4F0020761C2
:10055000E51290E6B3F0E51390E6B4F0020761907F
:10056000E6BAE0FF121058AA06A9077B01EA494B38
:10057000600DEE90E6B3F0EF90E6B4F00207619004
:10058000E6A0E04401F002076190E6A0E04401F03B
:100590000207611211DE0207611211F002076112F7
:1005A00000560207611211CC0207611212024003C9
:1005B00002076190E6B8E0247F602B14603C2402BF
:1005C000600302064AA200E433FF25E0FFA202E432
:1005D000334F90E740F0E4A3F090E68AF090E68B8A
:1005E0007402F0020761E490E740F0A3F090E68A1D
:1005F000F090E68B7402F002076190E6BCE0547E56
:10060000FF7E00E0D3948040067C007D0180047C66
:10061000007D00EC4EFEED4F2429F58274123EF56C
:1006200083E493FF3395E0FEEF24A1FFEE34E68FE1
:1006300082F583E0540190E740F0E4A3F090E68A6D
:10064000F090E68B7402F002076190E6A0E04401AE
:10065000F0020761121204400302076190E6B8E05D
:1006600024FE601D2402600302076190E6BAE0B434
:100670000105C20002076190E6A0E04401F0020714
:100680006190E6BAE0705990E6BCE0547EFF7E00CF
:10069000E0D3948040067C007D0180047C007D00D6
:1006A000EC4EFEED4F2429F58274123EF583E4935F
:1006B000FF3395E0FEEF24A1FFEE34E68F82F58351
:1006C000E054FEF090E6BCE05480FF131313541F77
:1006D000FFE0540F2F90E683F0E04420F002076122
:1006E00090E6A0E04401F08078121206507390E684
:1006F000B8E024FE60202402706790E6BAE0B401FE
:1007000004D200805C90E6BAE06402605490E6A0F7
:10071000E04401F0804B90E6BCE0547EFF7E00E0B8
:10072000D3948040067C007D0180047C007D00EC39
:100730004EFEED4F2429F58274123EF583E493FFBB
:100740003395E0FEEF24A1FFEE34E68F82F583E0DF
:100750004401F0800C120116500790E6A0E044011D
:10076000F090E6A0E04480F022C203C200C202C2C0
:1007700001120A67E4F50AF50BC2C975CDFC75CC08
:100780002AD2CAD2AD750808750907C2A7D2A690A9
:10079000E672F075B68075B1807E007F908E0E8F08
:1007A0000F7516007517A2750C00750DAC75140049
:1007B0007515CC7518007519EC90E680E030E70EE1
:1007C000850C10850D11851412851513800C851468
:1007D00010851511850C12850D13EE54E07003027F
:1007E00008F8752900752A807E007F908E2B8F2C4B
:1007F000C374149FFF74019ECF2402CF3400FEE423
:100800008F288E27F526F525F524F523F522F521E9
:10081000AF28AE27AD26AC25AB24AA23A922A82158
:10082000C3120B97502AE52A2524F582E5293523A2
:10083000F58374CDF0E4FAF9F8E5242401F524EA0F
:100840003523F523E93522F522E83521F52180C04D
:10085000E4F524F523F522F521AF28AE27AD26AC2B
:1008600025AB24AA23A922A821C3120B975037E550
:100870002C2524F582E52B3523F583E0FFE52A2599
:1008800024F582E5293523F583EFF0E4FAF9F8E55C
:10089000242401F524EA3523F523E93522F522E85D
:1008A0003521F52180B385290E852A0F7490248087
:1008B000FF740034FFFEC3E5179FF517E5169EF59C
:1008C00016C3E5119FF511E5109EF510C3E5139FC2
:1008D000F513E5129EF512C3E50D9FF50DE50C9E8F
:1008E000F50CC3E5159FF515E5149EF514C3E51940
:1008F0009FF519E5189EF518D2E843D82090E668D0
:10090000E04409F090E65CE0443FF0D2AF90E6802E
:10091000E020E105D205120FFD90E680E054F7F0EB
:10092000538EF8C2033001051204CFC201300329EF
:10093000120BFC5024C2031210AD20001690E68268
:10094000E030E704E020E1EF90E682E030E604E00A
:1009500020E0E412102C120BFE12003280C722C0DD
:10096000E0C083C082C085C084C086758600C0D0C8
:1009700075D000C000C001C002C003C006C007900F
:10098000E678E030E206751F06020A4990E678E054
:1009900020E10CE51F64026006751F07020A49E5A5
:1009A0001F24FE605F14603624FE7003020A3A249E
:1009B000FC7003020A4624086003020A49AB1BAA22
:1009C0001CA91DAF1E051E8F82758300120B489057
:1009D000E679F0E51E651A7070751F05806B90E66C
:1009E00079E0AB1BAA1CA91DAE1E8E827583001276
:1009F0000B75751F02E51A6401704E90E678E044AD
:100A000020F08045E51A24FEB51E0790E678E04404
:100A100020F0E51A14B51E0A90E678E04440F0751F
:100A20001F0090E679E0AB1BAA1CA91DAE1E8E82AA
:100A3000758300120B75051E800F90E678E0444028
:100A4000F0751F008003751F005391DFD007D0069B
:100A5000D003D002D001D000D0D0D086D084D085B1
:100A6000D082D083D0E03290E600740AF090E601A4
:100A70007443F000000090E61274A0F0000000E45F
:100A800090E613F000000090E61474E0F00000001F
:100A9000E490E615F000000090E6047480F0000099
:100AA000007402F00000007406F0000000E4F000A2
:100AB000000090E60274E6F000000090E60374F88F
:100AC000F000000090E670E04440F0000000E49088
:100AD000E609F000000043B20700000090E61804A9
:100AE000F00000007411F000000090E61A7409F0A4
:100AF000000000E490E671F090E672F075B4EFF556
:100B0000B6F5A0C280C204F54CF54AF549F548F5A2
:100B1000471211F890E67AE04401F090E678E0544C
:100B200010FFC4540F4450F54B13E433F54F22BB70
:100B3000010689828A83E0225002E722BBFE02E39B
:100B40002289828A83E49322BB010CE58229F58203
:100B5000E5833AF583E0225006E92582F8E622BBD8
:100B6000FE06E92582F8E222E58229F582E5833A4C
:100B7000F583E49322F8BB010DE58229F582E58334
:100B80003AF583E8F0225006E92582C8F622BBFE3A
:100B900005E92582C8F222EB9FF5F0EA9E42F0E9D2
:100BA0009D42F0E89C45F022E8600FEFC333FFEE72
:100BB00033FEED33FDEC33FCD8F122C0E0B2A56387
:100BC000B180E509150970021508E5094508701E90
:100BD00075080475091FE50B6401450A7006B2A685
:100BE000D2A78004B2A7D2A6750A00750B0075CDF6
:100BF000FC75CC23C2CFD0E032D2A322D322D322A1
:100C0000021170000211B6000211A000021188004A
:100C1000020E8C00020EC3000200420002004A00D5
:100C200002005200021208000212090002120A0019
:100C300002120B0002120C0002120D0002120E0032
:100C400002120F0002004A000212100002121100EC
:100C500002121200021213000212140002121500F6
:100C60000212160002004A0002004A0002004A0076
:100C700002121700021218000212190002121A00C2
:100C800002121B0002121C0002121D0002121E00A2
:100C900002121F0002122000021221000212220082
:100CA0000212230002122400021225000212260062
:100CB00002122700021228008F398E388D378C36A9
:100CC0008B3A8A3B893C12004E00120046007F0698
:100CD000120F990012004E00120046007F02120F00
:100CE00099AF39AE38AD37AC36120D64E4FCECC3C5
:100CF000953D5015AB3AAA3BA93C8C8275830012F6
:100D00000B48FF120F990C80E50012004E228F391C
:100D10008E388D378C368B3A8A3B893C12004E00D8
:100D2000120046007F06120F990012004E001200BA
:100D300046007F03120F99AF39AE38AD37AC36128B
:100D40000D64E4FDEDC3953D5015120006AB3AAAC3
:100D50003BA93C8D82758300EF120B750D80E50079
:100D600012004E228F418E408D3F8C3E53B1F7E4EE
:100D7000FBAF41AE40AD3FAC3EA803120BA88F4580
:100D80008E448D438C4200E4FFFEE5435480FDE435
:100D9000FCED6003D38001C3920530050543B1200B
:100DA000800353B1DF43B1080053B1F70BBB18C147
:100DB000228E368F378D388A398B3AE4FDF53BE544
:100DC0004F6012E536FF7E000DEE2400F582E4341C
:100DD00000F583EFF0E537AE050D74002EF582E4E3
:100DE0003400F583E537F07A007B00AF4B121154E5
:100DF000AB3AAA39AD38AF4B12113822AB07AA066D
:100E0000AC05E4FDE54F6010EA7E000DEE2400F530
:100E100082E43400F583EAF0EBAE050D74002EF5A4
:100E200082E43400F583EBF0AF050D74002FF582FA
:100E3000E43400F583ECF07A007B00AF4B121154E0
:100E4000AF4B120EFA228E2D8F2E90E600E0541832
:100E50007012E52E2401FFE4352DC313F52DEF1399
:100E6000F52E801590E600E05418FFBF100BE52E1C
:100E700025E0F52EE52D33F52DE52E152EAE2D7042
:100E800002152D4E60051210C180EE22C0E0C08315
:100E9000C08290E680E030E70E850C10850D11854C
:100EA0001412851513800C851410851511850C12EC
:100EB000850D135391EF90E65D7410F0D082D083CE
:100EC000D0E032C0E0C083C08290E680E030E70E20
:100ED000850C10850D11851412851513800C851451
:100EE00010851511850C12850D135391EF90E65D59
:100EF0007420F0D082D083D0E03290E678E020E613
:100F0000F9C2E990E678E04480F0EF25E090E679D8
:100F1000F090E678E030E0F990E678E04440F09038
:100F2000E678E020E6F990E678E030E1D6D2E922F2
:100F30008E368F378D388A398B3AE4F53BE53BC3E3
:100F4000953850200537E537AE367002053614FF68
:100F5000E53A253BF582E43539F583E0FD120DFCD9
:100F6000053B80D922A90790E678E020E6F9E51F45
:100F7000702590E678E04480F0E925E0440190E6B1
:100F800079F08D1AAF03A907751B018A1C891DE42E
:100F9000F51E751F03D322C322E4FE53B1F7FDEF04
:100FA000A805088002C333D8FCFE0030E703D380D5
:100FB00001C3920530050543B120800353B1DF43DF
:100FC000B1080053B1F70DBD08D522A90790E67806
:100FD000E020E6F9E51F702390E678E04480F0E930
:100FE00025E090E679F08D1AAF03A907751B018AF9
:100FF0001C891DE4F51E751F01D322C3223005098B
:1010000090E680E0440AF0800790E680E04408F033
:101010007FDC7E05120E4690E65D74FFF090E65F81
:10102000F05391EF90E680E054F7F02290E682E0F2
:1010300030E004E020E60B90E682E030E119E03099
:10104000E71590E680E04401F07F147E00120E4622
:1010500090E680E054FEF022A907AE18AF198F8207
:101060008E83A3E064037017AD0119ED7001228F28
:10107000828E83E07C002FFDEC3EFEAF0580DF7E9C
:10108000007F0022120B2FFC120BF90012008D00C2
:101090007F061210D200120BF90012008D007F02A1
:1010A0001210D2AF041210D200120BF92290E68275
:1010B000E044C0F090E681F04387010000000000AA
:1010C000227400F58690FDA57C05A3E5824583701A
:1010D000F922E4FEC2A1FDEFA805088002C313D8DF
:1010E000FCFE0030E003D38001C392A0D2A100C275
:1010F000A10DBD08E22212004E00120046007F063C
:10110000120F990012004E00120046001F120F9994
:101110001200060012004E2212004E00120046007D
:101120007F06120F990012004E00120046007FC782
:10113000120F990012004E22120F65E51F24FA606B
:101140000E146006240770F3D322E4F51FD322E4C3
:10115000F51FD322120FCBE51F24FA600E14600690
:10116000240770F3D322E4F51FD322E4F51FD32222
:10117000C0E0C083C082D2015391EF90E65D74015C
:10118000F0D082D083D0E032C0E0C083C082D203EE
:101190005391EF90E65D7408F0D082D083D0E032B6
:1011A000C0E0C083C0825391EF90E65D7404F0D03C
:1011B00082D083D0E032C0E0C083C0825391EF90F0
:1011C000E65D7402F0D082D083D0E03290E740E553
:1011D0004EF0E490E68AF090E68B04F0D32290E79C
:1011E00040E546F0E490E68AF090E68B04F0D322E6
:1011F00090E6BAE0F546D322E4F51FD2E9D2AF2259
:10120000D322D322D322D32232323232323232327A
:1012100032323232323232323232323232323232AE
:1012200032323232323232323200010202030304ED
:03123000040505AD
:00000001FF
