:02089800C10598
:100BB80090E6007410F0120E5400000090E61274D3
:100BC800A0F0000000E490E613F000000090E614A6
:100BD80074E0F0000000E490E615F000000090E6F4
:100BE800047480F00000007402F00000007406F045
:100BF800000000E4F000000090E61804F000000097
:100C08007411F000000090E61A7409F000000090DA
:100C1800E6D27402F000000090E6E214F000000052
:100C2800E490E671F075B4FF90E670F075B280C29A
:100C3800A4C2A3C2A2C2A7C2A6C2A5F51DF51A12D4
:0A0C4800126F90E67AE04401F022FA
:100D9200E51D64017031751D0290E6F574FFF09057
:100DA200E6047480F00000007402F0000000740693
:100DB200F0000000E4F0000000FFFE000FBF0001A1
:100DC2000EBE03F7BFE8F4E5BB30E72590E6F4E09A
:100DD20030E01EE5AC20E019E5BB30E7FB90E6D041
:100DE2007428F0000000E490E6D1F000000075BB2A
:010DF20006FA
:010DF30022DD
:02004000D322C9
:02004600D322C3
:02004800D322C1
:100FCA0090E680E030E71800000090E6247402F012
:100FDA00000000E490E625F0000000D2058016002B
:100FEA000000E490E624F000000090E6257440F04A
:0D0FFA00000000C20590E6BAE0F51BD3220E
:1012430090E740E51BF0E490E68AF090E68B04F02B
:02125300D322A4
:0812670090E6BAE0F518D3226D
:1012550090E740E518F0E490E68AF090E68B04F01C
:02126500D32292
:02004E00D322BB
:02005000D322B9
:020CFA00D32203
:1000560090E678E05410FFC4540F4450F51913E4A9
:1000660033F51CD20290E6B9E0245E603C24C270EF
:10007600030202371470030202821470030202C8DC
:100086001470030203F12431600302040FA205E495
:100096003390E740F0E490E68AF090E68B04F09027
:1000A600E6A0E04480F002041190E6BAE0752D0067
:1000B600F52EA3E0FEE4EE422D90E6BEE0752F009D
:1000C600F530A3E0FEE4EE422F90E6B8E064C060AF
:1000D6000302019FE530452F700302041190E6A04C
:1000E600E020E1F9C3E5309440E52F9400500885FF
:1000F6002F31853032800675310075324090E6B971
:10010600E0B4A335E4F533F534C3E5349532E5338D
:1001160095315060E52E2534F582E52D3533F5838E
:10012600E0FF74402534F582E434E7F583EFF0050B
:1001360034E5347002053380D0E4F533F534C3E595
:10014600349532E5339531501874402534F582E400
:1001560034E7F58374CDF00534E534700205338059
:10016600DDAD327AE779407EE77F40AB07AF2EAE52
:100176002D120EAFE490E68AF090E68BE532F0257C
:100186002EF52EE531352DF52DC3E5309532F530BA
:10019600E52F9531F52F0200DA90E6B8E06440606D
:1001A60003020411E530452F7003020411E490E6C2
:1001B6008AF090E68BF090E6A0E020E1F990E68BDD
:1001C600E0753100F53290E6B9E0B4A335E4F533D5
:1001D600F534C3E5349532E533953150387440250E
:1001E60034F582E434E7F583E0FFE52E2534F58225
:1001F600E52D3533F583EFF00534E534700205332C
:1002060080D0AD327AE779407EE77F40AB07AF2EEC
:10021600AE2D12103DE532252EF52EE531352DF5A4
:100226002DC3E5309532F530E52F9531F52F0201D6
:10023600AAE490E68AF090E68BF090E6A0E020E152
:10024600F990E740E0F53514602914601D24FD603F
:100256001024FB6003020411C2A4D2A3D2A202049A
:1002660011C2A4C2A3C2A2020411C2A4C2A3D2A2F2
:10027600020411C2A4D2A3C2A2020411E490E68A27
:10028600F090E68BF090E6A0E020E1F990E740E000
:10029600F53524FE601A24FD600D24FB701BC2A7F1
:1002A600D2A6D2A5020411C2A7C2A6C2A5020411F3
:1002B600C2A7C2A6D2A5020411C2A7D2A6C2A5028F
:1002C6000411E490E68AF090E68BF090E6A0E02038
:1002D600E1F990E740E0F53514700302036D24FD63
:1002E600607124FC605924F8604224F8602D24FAD9
:1002F600601824EE600302037F90E60174EAF09032
:10030600E05074FFF0751A01806F90E60174AAF050
:1003160090E05074FFF0751A01805E90E60174CA91
:10032600F090E05074FBF0751A01804D90E6017470
:10033600CAF090E0407401F0A3F0E4F51A803A9018
:10034600E60174CAF090E0407402F0A304F0E4F50C
:100356001A802690E60174CAF090E0407405F0A376
:1003660004F0E4F51A801290E60174CAF090E040B9
:100376007417F0A304F0E4F51A90E6F574FFF09014
:10038600E080E090E6F3F090E081E090E6C3F09044
:10039600E082E090E6C1F090E083E090E6C2F09063
:1003A600E085E090E6C0F090E086E090E6F4F07537
:1003B600AF07E51AB4010A74E0F59A7487F59B80D5
:1003C6000874E0F59A7400F59B759DE4E4F59EF5D6
:1003D60033F53490E67BE090E67CF00534E5347046
:1003E6000205336480453370EA8020E490E68AF0A3
:1003F60090E68BF090E6A0E020E1F990E740E0F58A
:0C04060035B40107751D018002D322C32C
:0104120022C7
:10000300C0E0C083C082C085C084C086758600D22C
:10001300015391EF90E65D7401F0D086D084D085D2
:07002300D082D083D0E0324F
:1011B800C0E0C083C082C085C084C08675860053E5
:1011C80091EF90E65D7404F0D086D084D085D0820B
:0511D800D083D0E032DD
:1011DD00C0E0C083C082C085C084C08675860053C0
:1011ED0091EF90E65D7402F0D086D084D085D082E8
:0511FD00D083D0E032B8
:100EF800C0E0C083C082C085C084C086758600906B
:100F0800E680E030E70E850A0E850B0F8512108506
:100F18001311800C85120E85130F850A10850B118D
:100F28005391EF90E65D7410F0D086D084D085D0D0
:060F380082D083D0E032FC
:10119100C0E0C083C082C085C084C086758600D28D
:1011A100045391EF90E65D7408F0D086D084D08529
:0711B100D082D083D0E032B0
:100F3E00C0E0C083C082C085C084C0867586009024
:100F4E00E680E030E70E850A0E850B0F85121085C0
:100F5E001311800C85120E85130F850A10850B1147
:100F6E005391EF90E65D7420F0D086D084D085D07A
:060F7E0082D083D0E032B6
:01002A0032A3
:01003200329B
:01004200328B
:01004A003283
:01005200327B
:010AFF0032C4
:010CFC0032C5
:010CFD0032C4
:010CFE0032C3
:010CFF0032C2
:011277003244
:011278003243
:011279003242
:01127A003241
:01127B003240
:01127C00323F
:01127D00323E
:01127E00323D
:01127F00323C
:01128000323B
:01128100323A
:011282003239
:011283003238
:011284003237
:011285003236
:011286003235
:011287003234
:011288003233
:011289003232
:01128A003231
:01128B003230
:01128C00322F
:01128D00322E
:01128E00322D
:01128F00322C
:01129000322B
:060AB500AB07AA06AC0528
:100ABB00E4FDE51C6010EA7E000DEE2407F582E4F0
:100ACB0034E1F583EAF0EBAE050D74072EF582E405
:100ADB0034E1F583EBF0AF050D74072FF582E434A9
:100AEB00E1F583ECF07AE17B07AF19121227AF190E
:030AFB00121007CF
:010AFE0022D5
:0A103D008E368F378D388A398B3AD2
:10104700E4F53BE53BC3953850200537E537AE3629
:101057007002053614FFE53A253BF582E43539F58C
:0A10670083E0FD120AB5053B80D9B5
:01107100225C
:0A0EAF008E368F378D388A398B3A62
:100EB900E4FDE51C6012E536FF7E000DEE2407F522
:100EC90082E434E1F583EFF0E537AE050D74072EC2
:100ED900F582E434E1F583E537F07AE17B07AF1970
:0E0EE900121227AB3AAA39AD38AF19120CDE3F
:010EF70022D8
:10089A006080E0000E03011101013007010002012E
:1008AA0000001100FFFEFFFEFFFEFFFF000912120B
:1008BA00002D123F08030101010101070102040191
:1008CA0000000000FFFCFFFEFFFEFFFF09091212F5
:1008DA00002D363F1718010101010107000201002E
:1008EA0000001000FFFBFFFBFBFBFBFB00091212E1
:1008FA00002D123F0803013F010101070102000117
:10090A0000000000FFFDFFFFFFFFFFFF09091212B1
:10091A00002D363F6080E087010201013F01010797
:10092A00000002000100000007020207070707078C
:10093A00000000003F00003F03013F0101010107E1
:10094A00020205000000000005070707070707075E
:10095A0000003F000000003F010180010101BF07C4
:10096A000202030202021100FFFFFFFFFFFFFFFF67
:10097A0000091212002D123F0101010101010107B4
:10098A000000000000000000070707070707070725
:10099A00000000000000003F47E080C000000FCACE
:0209AA001E002D
:100E540090E60174CAF090E6F574FFF090E080E04B
:100E640090E6F3F090E081E090E6C3F090E082E059
:100E740090E6C1F090E083E090E6C2F090E085E077
:100E840090E6C0F090E086E090E6F4F075AF077469
:100E9400E0F59A7400F59B759DE4E4F59EFF90E6F9
:0A0EA4007BE090E67CF00FBF80F4C5
:010EAE002221
:0A00360000010202030304040505A3
:1006AD00C204C200C203C201C2027508087509075F
:1006BD00120BB8C2C975CDF875CC40D2CAD2ADC235
:1006CD0087C2A0D2A17E0D7F008E0C8F0D75140DEB
:1006DD00751512750A0D750B1C75120D75133C757C
:1006ED00160D75175C90E680E030E70E850A0E85D5
:1006FD000B0F851210851311800C85120E85130FAB
:10070D00850A10850B11EE54E0700302083175292E
:10071D0000752A807E0D7F008E2B8F2CC374909FC9
:10072D00FF740D9ECF2402CF3400FEE48F288E2758
:10073D00F526F525F524F523F522F521AF28AE276D
:10074D00AD26AC25AB24AA23A922A821C3120E43A2
:10075D00502AE52A2524F582E5293523F58374CD24
:10076D00F0E4FAF9F8E5242401F524EA3523F5231C
:10077D00E93522F522E83521F52180C0E4F524F58F
:10078D0023F522F521AF28AE27AD26AC25AB24AA43
:10079D0023A922A821C3120E435037E52C2524F599
:1007AD0082E52B3523F583E0FFE52A2524F582E547
:1007BD00293523F583EFF0E4FAF9F8E5242401F562
:1007CD0024EA3523F523E93522F522E83521F521F3
:1007DD0080B385290C852A0D74002480FF740D3497
:1007ED00FFFEC3E5159FF515E5149EF514C3E50F42
:1007FD009FF50FE50E9EF50EC3E5119FF511E51062
:10080D009EF510C3E50B9FF50BE50A9EF50AC3E5B2
:10081D00139FF513E5129EF512C3E5179FF517E526
:10082D00169EF516D2E843D82090E668E04409F00C
:10083D0090E65CE0443DF0D2AF90E680E020E1052B
:10084D00D20612110A90E680E054F7F0538EF8C2EA
:10085D0004300105120413C2013004291200405066
:10086D0024C20412120220001690E682E030E70442
:10087D00E020E1EF90E682E030E604E020E0E412D3
:0A088D001139120046120D9280C7C7
:01089700223E
:1004130090E6B9E070030204EF1470030205982418
:10042300FE700302062D24FB70030204E91470031B
:100433000204E31470030204D71470030204DD24DE
:1004430005600302069912004840030206A590E6E0
:10045300BBE024FE602C14604724FD601614603159
:1004630024067066E50C90E6B3F0E50D90E6B4F073
:100473000206A5E51490E6B3F0E51590E6B4F002A4
:1004830006A5E50E90E6B3F0E50F90E6B4F002069C
:10049300A5E51090E6B3F0E51190E6B4F00206A5E9
:1004A30090E6BAE0FF121165AA06A9077B01EA49A3
:1004B3004B600DEE90E6B3F0EF90E6B4F00206A5C4
:1004C30090E6A0E04401F00206A590E6A0E0440116
:1004D300F00206A51212550206A51212670206A51E
:1004E300120FCA0206A51212430206A512004E40BD
:1004F300030206A590E6B8E0247F602B14603C2439
:1005030002600302058EA200E433FF25E0FFA2038D
:10051300E4334F90E740F0E4A3F090E68AF090E6EE
:100523008B7402F00206A5E490E740F0A3F090E696
:100533008AF090E68B7402F00206A590E6BCE054C4
:100543007EFF7E00E0D3948040067C007D01800422
:100553007C007D00EC4EFEED4F2436F58274003EA8
:10056300F583E493FF3395E0FEEF24A1FFEE34E639
:100573008F82F583E0540190E740F0E4A3F090E626
:100583008AF090E68B7402F00206A590E6A0E044A0
:1005930001F00206A512005040030206A590E6B83A
:1005A300E024FE601D240260030206A590E6BAE083
:1005B300B40105C2000206A590E6A0E04401F002E2
:1005C30006A590E6BAE0705990E6BCE0547EFF7E43
:1005D30000E0D3948040067C007D0180047C007D94
:1005E30000EC4EFEED4F2436F58274003EF583E4B5
:1005F30093FF3395E0FEEF24A1FFEE34E68F82F5FF
:1006030083E054FEF090E6BCE05480FF13131354D0
:100613001FFFE0540F2F90E683F0E04420F0020622
:10062300A590E6A0E04401F08078120CFA50739094
:10063300E6B8E024FE60202402706790E6BAE0B4D6
:100643000104D200805C90E6BAE06402605490E654
:10065300A0E04401F0804B90E6BCE0547EFF7E00B6
:10066300E0D3948040067C007D0180047C007D0003
:10067300EC4EFEED4F2436F58274003EF583E49391
:10068300FF3395E0FEEF24A1FFEE34E68F82F5837E
:10069300E04401F0800C120056500790E6A0E044BD
:0906A30001F090E6A0E04480F0B3
:0106AC00222B
:0300330002002E9A
:04002E0053D8EF3282
:03002B000210A61A
:1010A600C0E0B287E509150970021508E50945088B
:1010B600701575080475091F300206B2A1D2A0800A
:1010C60004B2A0D2A1C20275CDF875CC40C2CFD071
:0210D600E03206
:100D00001201000200000040B50422600000010250
:100D100000010A0600020000004001000902200054
:100D200001010080320904000002FF0000000705F5
:100D300002020002000705860200020009022000EC
:100D400001010080320904000004FF0000000705D3
:100D50000202400000070586024000000403090467
:100D60000E034F0044004D0020002000200022030D
:100D7000480061006E00740065006B004400530081
:100D80004F003600300032003200420045002000A3
:020D9000000061
:1011390090E682E030E004E020E60B90E682E030C1
:10114900E119E030E71590E680E04401F07F147E74
:0C11590000120F8490E680E054FEF022AB
:1012020090E682E044C0F090E681F043870100005E
:0412120000000022B6
:10110A0030060990E680E0440AF0800790E680E025
:10111A004408F07FDC7E05120F8490E65D74FFF0D0
:0F112A0090E65FF05391EF90E680E054F7F022EB
:08126F00E4F541D2E9D2AF22FF
:1010070090E678E020E6F9C2E990E678E04480F0DF
:10101700EF25E090E679F090E678E030E0F990E6A9
:1010270078E04440F090E678E020E6F990E678E052
:0610370030E1D6D2E922EF
:1010D800A90790E678E020E6F9E541702390E678E4
:1010E800E04480F0E925E090E679F08D3CAF03A973
:1010F80007753D018A3E893FE4F540754101D322D9
:02110800C32200
:10107200A90790E678E020E6F9E541702590E67848
:10108200E04480F0E925E0440190E679F08D3CAF40
:1010920003A907753D018A3E893FE4F54075410386
:0410A200D322C32270
:03004B000209ADFA
:1009AD00C0E0C083C082C085C084C086758600C08B
:1009BD00D075D000C000C001C002C003C006C00782
:1009CD0090E678E030E206754106020A9790E678E7
:1009DD00E020E10CE54164026006754107020A97CB
:1009ED00E54124FE605F14603624FE7003020A8820
:1009FD0024FC7003020A9424086003020A97AB3D9D
:100A0D00AA3EA93FAF4005408F82758300120DF4B9
:100A1D0090E679F0E540653C7070754105806B900E
:100A2D00E679E0AB3DAA3EA93FAE408E82758300CC
:100A3D00120E21754102E53C6401704E90E678E09E
:100A4D004420F08045E53C24FEB5400790E678E073
:100A5D004420F0E53C14B5400A90E678E04440F0BF
:100A6D0075410090E679E0AB3DAA3EA93FAE408EC0
:100A7D0082758300120E210540800F90E678E044C8
:100A8D0040F075410080037541005391DFD007D0D0
:100A9D0006D003D002D001D000D0D0D086D084D0E3
:080AAD0085D082D083D0E03235
:02116500A907D8
:10116700AE16AF178F828E83A3E064037017AD01AD
:1011770019ED7001228F828E83E07C002FFDEC3EFB
:09118700FEAF0580DF7E007F0051
:01119000223C
:100CDE00121072E54124FA600E146006240770F3B8
:0C0CEE00D322E4F541D322E4F541D322E7
:101227001210D8E54124FA600E146006240770F303
:0C123700D322E4F541D322E4F541D32298
:100F84008E2D8F2E90E600E054187012E52E240169
:100F9400FFE4352DC313F52DEF13F52E801590E6E0
:100FA40000E05418FFBF100BE52E25E0F52EE52DCB
:100FB40033F52DE52E152EAE2D7002152D4E600540
:060FC40012121680EE225D
:101216007400F58690FDA57C05A3E582458370F9EB
:0112260022A5
:03004300020B00AD
:03005300020B009D
:100B0000020003000211DD000211B8000211910081
:100B1000020EF800020F3E0002002A00020032001E
:100B20000200420002004A0002005200020AFF00D6
:100B3000020CFC00020CFD00020CFE00020CFF0087
:100B400002127700020032000212780002127900CD
:100B500002127A0002127B0002127C0002127D0057
:100B600002127E0002003200020032000200320057
:100B700002127F0002128000021281000212820023
:100B80000212830002128400021285000212860003
:100B900002128700021288000212890002128A00E3
:100BA00002128B0002128C0002128D0002128E00C3
:080BB00002128F0002129000F6
:03000000020C529D
:0C0C5200787FE4F6D8FD758141020C9912
:100DF400BB010CE58229F582E5833AF583E02250B4
:100E040006E92582F8E622BBFE06E92582F8E222FD
:0D0E1400E58229F582E5833AF583E4932217
:100E2100F8BB010DE58229F582E5833AF583E8F007
:100E3100225006E92582C8F622BBFE05E92582C8B3
:020E4100F2229B
:100E4300EB9FF5F0EA9E42F0E99D42F0E89C45F005
:010E5300227C
:100C5E000206ADE493A3F8E493A34003F68001F2F9
:100C6E0008DFF48029E493A3F85407240CC8C33397
:100C7E00C4540F4420C8834004F456800146F6DF66
:100C8E00E4800B0102040810204080900898E47E56
:100C9E00019360BCA3FF543F30E509541FFEE4935B
:100CAE00A360010ECF54C025E060A840B8E493A322
:100CBE00FAE493A3F8E493A3C8C582C8CAC583CA4D
:100CCE00F0A3C8C582C8CAC583CADFE9DEE780BE05
:0109AC00004A
:00000001FF
